:100000000C94D3010C94AF030C94F0010C94F00108
:100010000C94F0010C94F0010C94F0010C94F0019C
:100020000C94F0010C94F0010C94F0010C94F0018C
:100030000C94F0010C94F0010C94F0010C94F0017C
:100040000C94DB030C94F0010C9475090C94560984
:100050000C94F0010C94F0010C94F0010C94F0015C
:100060000C94F0010C94F00100000000000000006E
:10007000002F000000000700070000147F147F1409
:1000800000242A7F2A12006264081323003649558F
:10009000225000000503000000001C224100000067
:1000A00041221C000014083E08140008083E0808FD
:1000B000000000A060000008080808080000606058
:1000C0000000002010080402003E5149453E000097
:1000D000427F4000004261514946002141454B3179
:1000E000001814127F10002745454539003C4A4945
:1000F00049300001710905030036494949360006B7
:100100004949291E0000363600000000563600001E
:100110000008142241000014141414140000412299
:10012000140800020151090600324959513E007C71
:100130001211127C007F49494936003E414141225B
:10014000007F4141221C007F49494941007F090944
:100150000901003E4149497A007F0808087F0000F4
:10016000417F4100002040413F01007F08142241AF
:10017000007F40404040007F020C027F007F040867
:10018000107F003E4141413E007F09090906003EC3
:100190004151215E007F09192946004649494931EC
:1001A0000001017F0101003F4040403F001F20400F
:1001B000201F003F4038403F0063140814630007CD
:1001C0000870080700615149454300007F41410024
:1001D00000552A552A55000041417F0000040201C4
:1001E00002040040404040400000010204000020A2
:1001F00054545478007F48444438003844444420E0
:1002000000384444487F00385454541800087E098C
:1002100001020018A4A4A47C007F08040478000054
:10022000447D4000004080847D00007F1028440011
:100230000000417F4000007C04180478007C080422
:10024000047800384444443800FC2424241800185E
:10025000242418FC007C080404080048545454204A
:1002600000043F444020003C4040207C001C2040D3
:10027000201C003C4030403C004428102844001C16
:10028000A0A0A07C004464544C44000008774100C6
:100290000000006300000000417708000008040827
:1002A0000804003A4040207A003D4040403D002193
:1002B00054545479007D1211127D0039444444395C
:1002C000003D4242423D000205020000007E01491D
:1002D0005573007C1010081C003048204830005C2A
:1002E0006202625CBC5F9C60A4618462B6639664D7
:1002F000B0659F66B5678968A969FFFF1B5B324AD5
:100300001B5B48001B5B313B33326D5553415254EC
:100310002052656164790D0A001B5B313B33336DFC
:100320003E496E697469616C697A696E6720493209
:10033000430D0A001B5B313B33336D3E496E6974DC
:1003400069616C697A696E67204F4C454420446945
:1003500073706C61790D0A00496E697469616C692A
:100360007A696E672E2E2E001B5B313B33336D3E58
:10037000496E697469616C697A696E6720445333A8
:100380003233310D0A001B5B306D00AE2000B0C867
:10039000001040813FA1A6A83FA4D300D5F0D922E8
:1003A000DA12DB208D1411241FBECFEFD8E0DEBFA0
:1003B000CDBF11E0A0E0B1E0EEE9F3E102C00590AD
:1003C0000D92A031B107D9F721E0A0E1B1E001C061
:1003D0001D92A536B207E1F70E9410030C94CD09D7
:1003E0000C940000CF93DF93CDB7DEB7809110015E
:1003F0008F5F8093100180911001823110F0109274
:1004000010010000DF91CF910895CF93DF9300D0CA
:10041000CDB7DEB78A831982909110018A8198172F
:1004200061F08A818093100180ED0E9444028A81EC
:100430000E94A9020E949C0208C081ED0E94440211
:100440000E94DE0289830E949C020E94F20189813F
:100450000F900F90DF91CF910895CF93DF93CDB799
:10046000DEB789EB90E0FC011082000088EB90E0A1
:1004700028E4FC0120838CEB90E024E0FC01208345
:100480000000DF91CF910895CF93DF9300D01F92AA
:10049000CDB7DEB78B838CEB90E024EAFC012083A0
:1004A00080E491E09A8389830FC089819A810197C2
:1004B0009A83898389819A81892B31F480911A01E9
:1004C000816080931A0132C08CEB90E0FC01808146
:1004D000882324F089819A81892B39F78BEB90E06E
:1004E0002B81FC0120838CEB90E024E8FC0120832D
:1004F00080E491E09A8389830FC089819A81019772
:100500009A83898389819A81892B31F480911A0198
:10051000826080931A010AC08CEB90E0FC0180811C
:10052000882324F089819A81892B39F70F900F90C5
:100530000F90DF91CF910895CF93DF93CDB7DEB7C2
:100540008CEB90E024E9FC0120830000DF91CF9147
:100550000895CF93DF9300D01F92CDB7DEB78B8382
:100560008BEB90E02B81FC0120838CEB90E024E866
:10057000FC01208380E491E09A8389830FC0898104
:100580009A8101979A83898389819A81892B31F491
:1005900080911A01846080931A010AC08CEB90E06C
:1005A000FC018081882324F089819A81892B39F785
:1005B0000F900F900F90DF91CF910895CF93DF931D
:1005C00000D0CDB7DEB78CEB90E024E8FC012083AF
:1005D00080E491E09A83898310C089819A81019790
:1005E0009A83898389819A81892B39F480911A01B0
:1005F000806180931A0180E00EC08CEB90E0FC01DA
:100600008081882324F089819A81892B31F78BEBB3
:1006100090E0FC0180810F900F90DF91CF910895C1
:10062000CF93DF9300D0CDB7DEB78AE290E02AE225
:1006300030E0F90120812470FC01208389E690E0FC
:1006400023E0FC01208384E490E0FC01108285E437
:1006500090E023E0FC0120838DE390E021E0FC01A9
:1006600020838EE690E021E0FC01208384E290E08C
:1006700024E230E0F90120812062FC01208388E03F
:1006800090E09A83898384EC90E02981FC012083A7
:1006900085EC90E029813A81232F3327FC012083C8
:1006A00081EC90E028E9FC01208381E091E09093C7
:1006B00062018093610181E091E0909360018093F9
:1006C0005F0178948CEF92E00E94B00884E093E0A0
:1006D0000E94B00810921501109214010000809140
:1006E00014019091150184369105C8F389E193E0D6
:1006F0000E94B0080E942D0284E393E00E94B0089B
:100700008FEA0E94700488E593E00E940B0888E657
:1007100093E00E94B00880ED0E9444028EE00E94A7
:10072000A90280E00E94A9020E949C028EE00E9421
:100730000502882F90E00E94CE0886E893E00E9490
:10074000B008809111018823E1F31092110180E03B
:100750000E940502882F90E00E94CE08F2CF1F92DF
:100760000F9200905F000F9211242F933F938F936D
:100770009F93EF93FF93CF93DF93CDB7DEB781E0E5
:100780008093110185E290E025E230E0F9013081AB
:1007900020E22327FC0120830000DF91CF91FF910D
:1007A000EF919F918F913F912F910F9000925F0059
:1007B0000F901F9018951F920F9200905F000F925C
:1007C00011248F939F93CF93DF93CDB7DEB78091A2
:1007D00012019091130101969093130180931201DD
:1007E00080911401909115010196909315018093C9
:1007F00014018091160190911701019690931701B1
:10080000809316010000DF91CF919F918F910F90FF
:1008100000925F000F901F901895CF93DF9300D048
:1008200000D0CDB7DEB79B838A836C8388E70E94B4
:10083000440280E00E94A90219820EC08981882F9B
:1008400090E02A813B81820F931FFC0180810E94EE
:10085000A90289818F5F898399818C81981770F3B0
:100860000E949C0200000F900F900F900F90DF915C
:10087000CF910895CF93DF9300D000D000D0CDB7B3
:10088000DEB79C838B837E836D8388E70E9444025E
:1008900080E40E94A9021A8219820FC02B813C8138
:1008A00089819A81820F931FFC0180810E94A90295
:1008B00089819A8101969A83898329813A818D81E0
:1008C0009E812817390750F30E949C02000026964B
:1008D0000FB6F894DEBF0FBECDBFDF91CF91089564
:1008E000CF93DF93CDB7DEB7A1970FB6F894DEBFF5
:1008F0000FBECDBF89A30E942D0219821AC0898123
:10090000882F90E02981222F30E025573C4F3B83F0
:100910002A832A813B81F90124912C834C819E01F9
:100920002B5F3F4F820F931FFC01408389818F5FB4
:10093000898389818B3118F389A188A3CE0105961B
:100940006CE10E940D040E9409050000A1960FB6FB
:10095000F894DEBF0FBECDBFDF91CF910895CF9346
:10096000DF9300D0CDB7DEB789836A839981892F61
:10097000880F890F880F89836A8189810E94C60444
:1009800000000F900F90DF91CF910895CF93DF93E8
:10099000CDB7DEB727970FB6F894DEBF0FBECDBF39
:1009A0008E836F838E81813850F58F81883038F542
:1009B0008E81809318018F81809319018F818055DA
:1009C000898381E28A838E818E5F8F708B838E8193
:1009D000882F90E00296807F992795958795959529
:1009E00087959595879595958795805F8C838FE7FB
:1009F0008D8365E0CE0101960E940D0401C00000C8
:100A000027960FB6F894DEBF0FBECDBFDF91CF9112
:100A10000895CF93DF93CDB7DEB7C158D1090FB694
:100A2000F894DEBF0FBECDBFCE01029640E850E085
:100A300060E070E00E94910919820DC0698180E038
:100A40000E94AF04CE01029660E870E00E943A0472
:100A500089818F5F89838981883080F30E943B057B
:100A60000000CF57DF4F0FB6F894DEBF0FBECDBFEB
:100A7000DF91CF910895CF93DF93CDB7DEB760E0DC
:100A800080E00E94AF040000DF91CF910895CF93E2
:100A9000DF93CDB7DEB7EE970FB6F894DEBF0FBE8B
:100AA000CDBF8EAF8EAD882F90E08930910551F18A
:100AB0008A3091051CF4089749F06EC08A30910580
:100AC00009F453C00D9709F460C066C02091190164
:100AD0009091180180910001392F381B832F622FCC
:100AE0000E94AF0480E20E94470520911901909175
:100AF000180180910001E92FE81B8E2F622F0E94C0
:100B0000AF047FC280911801282F30E0809100014E
:100B1000882F90E0880F991F880F991F820F931FCD
:100B20009C0180910001882F90E0880F991F880F09
:100B3000991FAC0185E190E0841B950B28173907BC
:100B400068F4209119019091180180910001880F9B
:100B5000880F890F622F0E94AF0453C28091190140
:100B6000682F85E10E94AF044CC280911901873043
:100B700008F044C29091190180910001980F809172
:100B80001801692F0E94AF0439C280911901682FA2
:100B900080E00E94AF0435C2809118018A3708F0C6
:100BA00030C28EAD803208F42CC28EAD80528EAF32
:100BB00085EE92E098878F838F819885FC018491E0
:100BC000898799858EAD891708F44CC08EAD8A87C8
:100BD0008FEF8EAF19822FC08981882F90E0880F08
:100BE000991F8C519D4F9F878E878E859F85FC0115
:100BF0008491888B8889882F90E09C01205231094C
:100C00008A85882F90E02817390791F48981882FE9
:100C100090E0880F991F01968C519D4F9A8B898B7C
:100C200089899A89FC0184918B8B8B898EAF16C040
:100C300089818F5F89838981882F90E0880F991F30
:100C400001968C519D4F9C878B878B859C85FC01E1
:100C500084918D878D858F3F09F0BECF8EAD8F3FFC
:100C600009F4CEC180910001823009F087C18091E2
:100C70001801882F90E00C968138910510F0000043
:100C8000C0C11A829EC08A81882F90E0880F991F68
:100C90009E012F5F3F4F820F931F4A96FC011182E6
:100CA00010828EAD282F30E08A81482F50E0C90194
:100CB000880F991F820F931F880F991F840F951F0C
:100CC00088599F4F9D8B8C8B8C899D89FC018491C9
:100CD0008E8B8E898F8B1B826DC08F89882F90E0C1
:100CE0002B81222F30E002C0959587952A95E2F757
:100CF00081709927892B09F45AC08A81882F90E046
:100D00002A81222F30E0220F331FAE014F5F5F4F49
:100D1000240F351F265E3F4FF901208131814B8121
:100D2000442F50E0BA01660F771F41E050E002C047
:100D3000440F551F6A95E2F7242B352B880F991F16
:100D4000AE014F5F5F4F840F951F4A96FC013183C0
:100D500020838A81882F90E02A81222F30E0220F81
:100D6000331FAE014F5F5F4F240F351F265E3F4F8D
:100D7000F901208131814B81442F50E0440F551FF0
:100D8000BA016F5F7F4F41E050E002C0440F551F32
:100D90006A95E2F7242B352B880F991FAE014F5F20
:100DA0005F4F840F951F4A96FC01318320838B810E
:100DB0008F5F8B838B81883008F48FCF8A818F5F20
:100DC0008A838A81863008F45ECF1C823CC08C8185
:100DD000882F90E0880F991F2C81222F30E0220F5E
:100DE000331FAE014F5F5F4F240F351F265E3F4F0D
:100DF000F90120813181422F9E01295D3F4F820FF1
:100E0000931FFC0140838C81882F90E0880F991FED
:100E100001962C81222F30E0220F331FAE014F5F4D
:100E20005F4F240F351F265E3F4FF901208131812E
:100E3000422F9E01295D3F4F820F931FFC0140838B
:100E40008C818F5F8C838C81863008F2CE018796EF
:100E50006CE070E00E943A04809119018F548BABD2
:100E600081E28CAB809118018E5F8F708DAB809189
:100E70001801882F90E00296807F99279595879595
:100E8000959587959595879595958795805F8EAB78
:100E90008FE78FABCE01C39665E00E940D041D82E3
:100EA00040C08D81882F90E0880F991F2D81222FBF
:100EB00030E0220F331FAE014F5F5F4F240F351F0D
:100EC000265E3F4FF90120813181232F3327422FA6
:100ED0009E01295D3F4F820F931FFC0140838D814E
:100EE000882F90E0880F991F01962D81222F30E0E6
:100EF000220F331FAE014F5F5F4F240F351F265E59
:100F00003F4FF90120813181232F3327422F9E014A
:100F1000295D3F4F820F931FFC0140838D818F5FBE
:100F20008D838D81863008F4BCCFCE0187966CE02E
:100F300070E00E943A048091190180558BAB80913A
:100F40001801825F8F708DAB80911801882F90E01F
:100F50000E96807F9927929582958F7089279F7032
:100F60008927805F8EABCE01C39665E00E940D0499
:100F700080911801845F8093180143C0809118010B
:100F8000882F90E006968138910510F0000039C056
:100F90001E8225C08E81482F50E08EAD282F30E074
:100FA0008E81682F70E0C901880F991F820F931FEF
:100FB000880F991F860F971F88599F4F998F888F89
:100FC000888D998DFC0184918A8F2A8DCE01C896D7
:100FD000840F951FFC0120838E818F5F8E838E810D
:100FE0008630C0F2CE01C89666E070E00E943A04F6
:100FF000809118018A5F8093180103C0000001C02E
:1010000000000000EE960FB6F894DEBF0FBECDBF15
:10101000DF91CF9108951F93CF93DF9300D000D03D
:101020001F92CDB7DEB79D838C8303C0812F0E94B2
:1010300047058C819D819C012F5F3F4F3D832C8311
:101040009A83898389819A81FC0184918B838B8126
:10105000182F112359F700000F900F900F900F9049
:101060000F90DF91CF911F910895CF93DF93CDB76C
:10107000DEB7F89481E0DF91CF910895CF93DF93AD
:1010800000D0CDB7DEB79A8389838FE590E02981C0
:101090003A81F9012081FC01208300000F900F901C
:1010A000DF91CF9108951F93CF93DF9300D01F92CC
:1010B000CDB7DEB78B8380913D018F5F182F1F71F5
:1010C000000080913B018117E1F3812F90E0815C6A
:1010D0009E4F2B81FC0120838FE590E0FC018081F5
:1010E0008A830E94350889830CC010933D0181ECEE
:1010F00090E021EC30E0F90120812062FC012083A6
:1011000019828981882389F7CE0102960E943E08C0
:1011100000000F900F900F90DF91CF911F910895D5
:10112000CF93DF9300D01F92CDB7DEB79B838A8326
:1011300003C089810E9453088A819B819C012F5F93
:101140003F4F3B832A83FC018081898389818823E7
:1011500081F700000F900F900F90DF91CF910895CD
:101160001F93CF93DF9300D0CDB7DEB79A838983E7
:1011700003C0812F0E94530889819A819C012F5FAF
:101180003F4F3A832983FC011491112391F700000A
:101190000F900F90DF91CF911F910895CF93DF9320
:1011A000CDB7DEB729970FB6F894DEBF0FBECDBF1F
:1011B00099878887888599854AE050E09E012F5F4E
:1011C0003F4FB9010E949809CE0101960E949008F4
:1011D000000029960FB6F894DEBF0FBECDBFDF9199
:1011E000CF9108951F93CF93DF931F92CDB7DEB7B2
:1011F00010913C0180913E01181719F48FEF9FEF79
:1012000010C081E0810F182F1F71812F90E0855E43
:101210009E4FFC018081898310933C018981882F36
:1012200090E00F90DF91CF911F910895CF93DF93BE
:1012300000D01F92CDB7DEB789837B836A83898113
:101240008A3019F48DE00E94530889810E94530866
:1012500080E090E00F900F900F90DF91CF91089574
:10126000CF93DF9300D000D01F92CDB7DEB79D8320
:101270008C830E94F2089A83898389819A819923B9
:10128000C4F389818B838B810E9453088B81882FC3
:1012900090E09A83898389819A8199270F900F9092
:1012A0000F900F900F90DF91CF9108950F930FB78C
:1012B000EF93FF93E0913B01F0913D01E395EF71D6
:1012C000EF1305C0F091C100FF7DF093C100E093E2
:1012D0003B01F0E0E15CFE4FE081E093C600FF914E
:1012E000EF910FBF0F91189500000F930FB79F93C9
:1012F0009091C600EF93FF93E0913E01F0913C0185
:10130000E395EF71FE1731F0E0933E01F0E0E55E0A
:10131000FE4F9083FF91EF919F910FBF0F91189512
:101320000000DC0101C06D9341505040E0F708958A
:101330004532510520F4423010F00C94A309FB0112
:101340001082CB010895BB27FB015527AA27880FE0
:10135000991FAA1FA41710F0A41B83955051B9F729
:10136000A05DAA3308F0A95DA193009779F7B111A8
:10137000B1931192CB010C94BD09DC01FC01672FE4
:1013800071917723E1F7329704C07C916D9370835C
:0E1390006291AE17BF07C8F30895F894FFCF1F
:10139E0001000000030000000016093009000000E3
:00000001FF
